{
  "_format": "hh-sol-artifact-1",
  "contractName": "Blog",
  "sourceName": "contracts/Blog.sol",
  "abi": [
    {
      "inputs": [
        {
          "internalType": "string",
          "name": "_name",
          "type": "string"
        }
      ],
      "stateMutability": "nonpayable",
      "type": "constructor"
    },
    {
      "anonymous": false,
      "inputs": [
        {
          "indexed": false,
          "internalType": "uint256",
          "name": "id",
          "type": "uint256"
        },
        {
          "indexed": false,
          "internalType": "string",
          "name": "title",
          "type": "string"
        },
        {
          "indexed": false,
          "internalType": "string",
          "name": "hash",
          "type": "string"
        }
      ],
      "name": "PostCreated",
      "type": "event"
    },
    {
      "anonymous": false,
      "inputs": [
        {
          "indexed": false,
          "internalType": "uint256",
          "name": "id",
          "type": "uint256"
        },
        {
          "indexed": false,
          "internalType": "string",
          "name": "title",
          "type": "string"
        },
        {
          "indexed": false,
          "internalType": "string",
          "name": "hash",
          "type": "string"
        },
        {
          "indexed": false,
          "internalType": "bool",
          "name": "published",
          "type": "bool"
        }
      ],
      "name": "PostUpdated",
      "type": "event"
    },
    {
      "inputs": [
        {
          "internalType": "string",
          "name": "title",
          "type": "string"
        },
        {
          "internalType": "string",
          "name": "hash",
          "type": "string"
        }
      ],
      "name": "createPost",
      "outputs": [],
      "stateMutability": "nonpayable",
      "type": "function"
    },
    {
      "inputs": [
        {
          "internalType": "string",
          "name": "hash",
          "type": "string"
        }
      ],
      "name": "fetchPost",
      "outputs": [
        {
          "components": [
            {
              "internalType": "uint256",
              "name": "id",
              "type": "uint256"
            },
            {
              "internalType": "string",
              "name": "title",
              "type": "string"
            },
            {
              "internalType": "string",
              "name": "content",
              "type": "string"
            },
            {
              "internalType": "bool",
              "name": "published",
              "type": "bool"
            }
          ],
          "internalType": "struct Blog.Post",
          "name": "",
          "type": "tuple"
        }
      ],
      "stateMutability": "view",
      "type": "function"
    },
    {
      "inputs": [],
      "name": "fetchPosts",
      "outputs": [
        {
          "components": [
            {
              "internalType": "uint256",
              "name": "id",
              "type": "uint256"
            },
            {
              "internalType": "string",
              "name": "title",
              "type": "string"
            },
            {
              "internalType": "string",
              "name": "content",
              "type": "string"
            },
            {
              "internalType": "bool",
              "name": "published",
              "type": "bool"
            }
          ],
          "internalType": "struct Blog.Post[]",
          "name": "",
          "type": "tuple[]"
        }
      ],
      "stateMutability": "view",
      "type": "function"
    },
    {
      "inputs": [],
      "name": "name",
      "outputs": [
        {
          "internalType": "string",
          "name": "",
          "type": "string"
        }
      ],
      "stateMutability": "view",
      "type": "function"
    },
    {
      "inputs": [],
      "name": "owner",
      "outputs": [
        {
          "internalType": "address",
          "name": "",
          "type": "address"
        }
      ],
      "stateMutability": "view",
      "type": "function"
    },
    {
      "inputs": [
        {
          "internalType": "address",
          "name": "newOwner",
          "type": "address"
        }
      ],
      "name": "transferOwnership",
      "outputs": [],
      "stateMutability": "nonpayable",
      "type": "function"
    },
    {
      "inputs": [
        {
          "internalType": "string",
          "name": "_name",
          "type": "string"
        }
      ],
      "name": "updateName",
      "outputs": [],
      "stateMutability": "nonpayable",
      "type": "function"
    },
    {
      "inputs": [
        {
          "internalType": "uint256",
          "name": "postId",
          "type": "uint256"
        },
        {
          "internalType": "string",
          "name": "title",
          "type": "string"
        },
        {
          "internalType": "string",
          "name": "hash",
          "type": "string"
        },
        {
          "internalType": "bool",
          "name": "published",
          "type": "bool"
        }
      ],
      "name": "updatePost",
      "outputs": [],
      "stateMutability": "nonpayable",
      "type": "function"
    }
  ],
  "bytecode": "0x60806040523480156200001157600080fd5b50604051620018c9380380620018c98339818101604052810190620000379190620001ba565b80600090805190602001906200004f92919062000098565b5033600160006101000a81548173ffffffffffffffffffffffffffffffffffffffff021916908373ffffffffffffffffffffffffffffffffffffffff160217905550506200036f565b828054620000a69062000294565b90600052602060002090601f016020900481019282620000ca576000855562000116565b82601f10620000e557805160ff191683800117855562000116565b8280016001018555821562000116579182015b8281111562000115578251825591602001919060010190620000f8565b5b50905062000125919062000129565b5090565b5b80821115620001445760008160009055506001016200012a565b5090565b60006200015f620001598462000228565b620001ff565b9050828152602081018484840111156200017857600080fd5b620001858482856200025e565b509392505050565b600082601f8301126200019f57600080fd5b8151620001b184826020860162000148565b91505092915050565b600060208284031215620001cd57600080fd5b600082015167ffffffffffffffff811115620001e857600080fd5b620001f6848285016200018d565b91505092915050565b60006200020b6200021e565b9050620002198282620002ca565b919050565b6000604051905090565b600067ffffffffffffffff8211156200024657620002456200032f565b5b62000251826200035e565b9050602081019050919050565b60005b838110156200027e57808201518184015260208101905062000261565b838111156200028e576000848401525b50505050565b60006002820490506001821680620002ad57607f821691505b60208210811415620002c457620002c362000300565b5b50919050565b620002d5826200035e565b810181811067ffffffffffffffff82111715620002f757620002f66200032f565b5b80604052505050565b7f4e487b7100000000000000000000000000000000000000000000000000000000600052602260045260246000fd5b7f4e487b7100000000000000000000000000000000000000000000000000000000600052604160045260246000fd5b6000601f19601f8301169050919050565b61154a806200037f6000396000f3fe608060405234801561001057600080fd5b50600436106100885760003560e01c80638da5cb5b1161005b5780638da5cb5b14610113578063abaddd7f14610131578063cd349fe91461014f578063f2fde38b1461016b57610088565b806306fdde031461008d578063392338f5146100ab57806344828659146100c757806384da92a7146100f7575b600080fd5b610095610187565b6040516100a29190611102565b60405180910390f35b6100c560048036038101906100c09190610d64565b610215565b005b6100e160048036038101906100dc9190610d23565b6103d0565b6040516100ee9190611124565b60405180910390f35b610111600480360381019061010c9190610d23565b610551565b005b61011b61056b565b60405161012891906110c5565b60405180910390f35b610139610591565b60405161014691906110e0565b60405180910390f35b61016960048036038101906101649190610dd0565b610809565b005b61018560048036038101906101809190610cfa565b610a37565b005b6000805461019490611385565b80601f01602080910402602001604051908101604052809291908181526020018280546101c090611385565b801561020d5780601f106101e25761010080835404028352916020019161020d565b820191906000526020600020905b8154815290600101906020018083116101f057829003601f168201915b505050505081565b600160009054906101000a900473ffffffffffffffffffffffffffffffffffffffff1673ffffffffffffffffffffffffffffffffffffffff163373ffffffffffffffffffffffffffffffffffffffff161461026f57600080fd5b6102796002610ad5565b60006102856002610aeb565b90506000600360008381526020019081526020016000209050818160000181905550838160010190805190602001906102bf929190610af9565b5060018160030160006101000a81548160ff021916908315150217905550828160020190805190602001906102f5929190610af9565b508060048460405161030791906110ae565b908152602001604051809103902060008201548160000155600182018160010190805461033390611385565b61033e929190610b7f565b50600282018160020190805461035390611385565b61035e929190610b7f565b506003820160009054906101000a900460ff168160030160006101000a81548160ff0219169083151502179055509050507fe6851f0b99a9d86e5d68a97f65218980851216ce297f789c6b6b7e82ca1d90c88285856040516103c293929190611146565b60405180910390a150505050565b6103d8610c0c565b6004826040516103e891906110ae565b90815260200160405180910390206040518060800160405290816000820154815260200160018201805461041b90611385565b80601f016020809104026020016040519081016040528092919081815260200182805461044790611385565b80156104945780601f1061046957610100808354040283529160200191610494565b820191906000526020600020905b81548152906001019060200180831161047757829003601f168201915b505050505081526020016002820180546104ad90611385565b80601f01602080910402602001604051908101604052809291908181526020018280546104d990611385565b80156105265780601f106104fb57610100808354040283529160200191610526565b820191906000526020600020905b81548152906001019060200180831161050957829003601f168201915b505050505081526020016003820160009054906101000a900460ff1615151515815250509050919050565b8060009080519060200190610567929190610af9565b5050565b600160009054906101000a900473ffffffffffffffffffffffffffffffffffffffff1681565b6060600061059f6002610aeb565b905060008167ffffffffffffffff8111156105e3577f4e487b7100000000000000000000000000000000000000000000000000000000600052604160045260246000fd5b60405190808252806020026020018201604052801561061c57816020015b610609610c0c565b8152602001906001900390816106015790505b50905060005b8281101561080057600060018261063991906112a5565b90506000600360008381526020019081526020016000209050806040518060800160405290816000820154815260200160018201805461067890611385565b80601f01602080910402602001604051908101604052809291908181526020018280546106a490611385565b80156106f15780601f106106c6576101008083540402835291602001916106f1565b820191906000526020600020905b8154815290600101906020018083116106d457829003601f168201915b5050505050815260200160028201805461070a90611385565b80601f016020809104026020016040519081016040528092919081815260200182805461073690611385565b80156107835780601f1061075857610100808354040283529160200191610783565b820191906000526020600020905b81548152906001019060200180831161076657829003601f168201915b505050505081526020016003820160009054906101000a900460ff1615151515815250508484815181106107e0577f4e487b7100000000000000000000000000000000000000000000000000000000600052603260045260246000fd5b6020026020010181905250505080806107f8906113e8565b915050610622565b50809250505090565b600160009054906101000a900473ffffffffffffffffffffffffffffffffffffffff1673ffffffffffffffffffffffffffffffffffffffff163373ffffffffffffffffffffffffffffffffffffffff161461086357600080fd5b600060036000868152602001908152602001600020905083816001019080519060200190610892929190610af9565b50818160030160006101000a81548160ff021916908315150217905550828160020190805190602001906108c7929190610af9565b5080600360008781526020019081526020016000206000820154816000015560018201816001019080546108fa90611385565b610905929190610b7f565b50600282018160020190805461091a90611385565b610925929190610b7f565b506003820160009054906101000a900460ff168160030160006101000a81548160ff0219169083151502179055509050508060048460405161096791906110ae565b908152602001604051809103902060008201548160000155600182018160010190805461099390611385565b61099e929190610b7f565b5060028201816002019080546109b390611385565b6109be929190610b7f565b506003820160009054906101000a900460ff168160030160006101000a81548160ff0219169083151502179055509050507f9f8eb93fc073102bbd3072664634ab200707a4f11d94aace9cc8d0e4d019eff58160000154858585604051610a28949392919061118b565b60405180910390a15050505050565b600160009054906101000a900473ffffffffffffffffffffffffffffffffffffffff1673ffffffffffffffffffffffffffffffffffffffff163373ffffffffffffffffffffffffffffffffffffffff1614610a9157600080fd5b80600160006101000a81548173ffffffffffffffffffffffffffffffffffffffff021916908373ffffffffffffffffffffffffffffffffffffffff16021790555050565b6001816000016000828254019250508190555050565b600081600001549050919050565b828054610b0590611385565b90600052602060002090601f016020900481019282610b275760008555610b6e565b82601f10610b4057805160ff1916838001178555610b6e565b82800160010185558215610b6e579182015b82811115610b6d578251825591602001919060010190610b52565b5b509050610b7b9190610c36565b5090565b828054610b8b90611385565b90600052602060002090601f016020900481019282610bad5760008555610bfb565b82601f10610bbe5780548555610bfb565b82800160010185558215610bfb57600052602060002091601f016020900482015b82811115610bfa578254825591600101919060010190610bdf565b5b509050610c089190610c36565b5090565b60405180608001604052806000815260200160608152602001606081526020016000151581525090565b5b80821115610c4f576000816000905550600101610c37565b5090565b6000610c66610c6184611203565b6111de565b905082815260208101848484011115610c7e57600080fd5b610c89848285611343565b509392505050565b600081359050610ca0816114cf565b92915050565b600081359050610cb5816114e6565b92915050565b600082601f830112610ccc57600080fd5b8135610cdc848260208601610c53565b91505092915050565b600081359050610cf4816114fd565b92915050565b600060208284031215610d0c57600080fd5b6000610d1a84828501610c91565b91505092915050565b600060208284031215610d3557600080fd5b600082013567ffffffffffffffff811115610d4f57600080fd5b610d5b84828501610cbb565b91505092915050565b60008060408385031215610d7757600080fd5b600083013567ffffffffffffffff811115610d9157600080fd5b610d9d85828601610cbb565b925050602083013567ffffffffffffffff811115610dba57600080fd5b610dc685828601610cbb565b9150509250929050565b60008060008060808587031215610de657600080fd5b6000610df487828801610ce5565b945050602085013567ffffffffffffffff811115610e1157600080fd5b610e1d87828801610cbb565b935050604085013567ffffffffffffffff811115610e3a57600080fd5b610e4687828801610cbb565b9250506060610e5787828801610ca6565b91505092959194509250565b6000610e6f8383610fbc565b905092915050565b610e80816112fb565b82525050565b6000610e9182611244565b610e9b8185611267565b935083602082028501610ead85611234565b8060005b85811015610ee95784840389528151610eca8582610e63565b9450610ed58361125a565b925060208a01995050600181019050610eb1565b50829750879550505050505092915050565b610f048161130d565b82525050565b610f138161130d565b82525050565b6000610f248261124f565b610f2e8185611278565b9350610f3e818560208601611352565b610f47816114be565b840191505092915050565b6000610f5d8261124f565b610f678185611289565b9350610f77818560208601611352565b610f80816114be565b840191505092915050565b6000610f968261124f565b610fa0818561129a565b9350610fb0818560208601611352565b80840191505092915050565b6000608083016000830151610fd46000860182611090565b5060208301518482036020860152610fec8282610f19565b915050604083015184820360408601526110068282610f19565b915050606083015161101b6060860182610efb565b508091505092915050565b600060808301600083015161103e6000860182611090565b50602083015184820360208601526110568282610f19565b915050604083015184820360408601526110708282610f19565b91505060608301516110856060860182610efb565b508091505092915050565b61109981611339565b82525050565b6110a881611339565b82525050565b60006110ba8284610f8b565b915081905092915050565b60006020820190506110da6000830184610e77565b92915050565b600060208201905081810360008301526110fa8184610e86565b905092915050565b6000602082019050818103600083015261111c8184610f52565b905092915050565b6000602082019050818103600083015261113e8184611026565b905092915050565b600060608201905061115b600083018661109f565b818103602083015261116d8185610f52565b905081810360408301526111818184610f52565b9050949350505050565b60006080820190506111a0600083018761109f565b81810360208301526111b28186610f52565b905081810360408301526111c68185610f52565b90506111d56060830184610f0a565b95945050505050565b60006111e86111f9565b90506111f482826113b7565b919050565b6000604051905090565b600067ffffffffffffffff82111561121e5761121d61148f565b5b611227826114be565b9050602081019050919050565b6000819050602082019050919050565b600081519050919050565b600081519050919050565b6000602082019050919050565b600082825260208201905092915050565b600082825260208201905092915050565b600082825260208201905092915050565b600081905092915050565b60006112b082611339565b91506112bb83611339565b9250827fffffffffffffffffffffffffffffffffffffffffffffffffffffffffffffffff038211156112f0576112ef611431565b5b828201905092915050565b600061130682611319565b9050919050565b60008115159050919050565b600073ffffffffffffffffffffffffffffffffffffffff82169050919050565b6000819050919050565b82818337600083830152505050565b60005b83811015611370578082015181840152602081019050611355565b8381111561137f576000848401525b50505050565b6000600282049050600182168061139d57607f821691505b602082108114156113b1576113b0611460565b5b50919050565b6113c0826114be565b810181811067ffffffffffffffff821117156113df576113de61148f565b5b80604052505050565b60006113f382611339565b91507fffffffffffffffffffffffffffffffffffffffffffffffffffffffffffffffff82141561142657611425611431565b5b600182019050919050565b7f4e487b7100000000000000000000000000000000000000000000000000000000600052601160045260246000fd5b7f4e487b7100000000000000000000000000000000000000000000000000000000600052602260045260246000fd5b7f4e487b7100000000000000000000000000000000000000000000000000000000600052604160045260246000fd5b6000601f19601f8301169050919050565b6114d8816112fb565b81146114e357600080fd5b50565b6114ef8161130d565b81146114fa57600080fd5b50565b61150681611339565b811461151157600080fd5b5056fea2646970667358221220b24ed0e951185f565635f274e73eddefdb947072e45d07e28e900d5222fcc1af64736f6c63430008040033",
  "linkReferences": {},
  "deployedLinkReferences": {}
}