{
  "contractName": "Blog",
  "abi": [
    {
      "inputs": [
        {
          "internalType": "string",
          "name": "_name",
          "type": "string"
        }
      ],
      "stateMutability": "nonpayable",
      "type": "constructor"
    },
    {
      "anonymous": false,
      "inputs": [
        {
          "indexed": false,
          "internalType": "uint256",
          "name": "id",
          "type": "uint256"
        },
        {
          "indexed": false,
          "internalType": "string",
          "name": "title",
          "type": "string"
        },
        {
          "indexed": false,
          "internalType": "string",
          "name": "hash",
          "type": "string"
        }
      ],
      "name": "PostCreated",
      "type": "event"
    },
    {
      "anonymous": false,
      "inputs": [
        {
          "indexed": false,
          "internalType": "uint256",
          "name": "id",
          "type": "uint256"
        },
        {
          "indexed": false,
          "internalType": "string",
          "name": "title",
          "type": "string"
        },
        {
          "indexed": false,
          "internalType": "string",
          "name": "hash",
          "type": "string"
        },
        {
          "indexed": false,
          "internalType": "bool",
          "name": "published",
          "type": "bool"
        }
      ],
      "name": "PostUpdated",
      "type": "event"
    },
    {
      "inputs": [],
      "name": "name",
      "outputs": [
        {
          "internalType": "string",
          "name": "",
          "type": "string"
        }
      ],
      "stateMutability": "view",
      "type": "function"
    },
    {
      "inputs": [],
      "name": "owner",
      "outputs": [
        {
          "internalType": "address",
          "name": "",
          "type": "address"
        }
      ],
      "stateMutability": "view",
      "type": "function"
    },
    {
      "inputs": [
        {
          "internalType": "string",
          "name": "_name",
          "type": "string"
        }
      ],
      "name": "updateName",
      "outputs": [],
      "stateMutability": "nonpayable",
      "type": "function"
    },
    {
      "inputs": [
        {
          "internalType": "address",
          "name": "newOwner",
          "type": "address"
        }
      ],
      "name": "transferOwnership",
      "outputs": [],
      "stateMutability": "nonpayable",
      "type": "function"
    },
    {
      "inputs": [
        {
          "internalType": "string",
          "name": "hash",
          "type": "string"
        }
      ],
      "name": "fetchPost",
      "outputs": [
        {
          "components": [
            {
              "internalType": "uint256",
              "name": "id",
              "type": "uint256"
            },
            {
              "internalType": "string",
              "name": "title",
              "type": "string"
            },
            {
              "internalType": "string",
              "name": "content",
              "type": "string"
            },
            {
              "internalType": "bool",
              "name": "published",
              "type": "bool"
            }
          ],
          "internalType": "struct Blog.Post",
          "name": "",
          "type": "tuple"
        }
      ],
      "stateMutability": "view",
      "type": "function"
    },
    {
      "inputs": [
        {
          "internalType": "string",
          "name": "title",
          "type": "string"
        },
        {
          "internalType": "string",
          "name": "hash",
          "type": "string"
        }
      ],
      "name": "createPost",
      "outputs": [],
      "stateMutability": "nonpayable",
      "type": "function"
    },
    {
      "inputs": [
        {
          "internalType": "uint256",
          "name": "postId",
          "type": "uint256"
        },
        {
          "internalType": "string",
          "name": "title",
          "type": "string"
        },
        {
          "internalType": "string",
          "name": "hash",
          "type": "string"
        },
        {
          "internalType": "bool",
          "name": "published",
          "type": "bool"
        }
      ],
      "name": "updatePost",
      "outputs": [],
      "stateMutability": "nonpayable",
      "type": "function"
    },
    {
      "inputs": [],
      "name": "fetchPosts",
      "outputs": [
        {
          "components": [
            {
              "internalType": "uint256",
              "name": "id",
              "type": "uint256"
            },
            {
              "internalType": "string",
              "name": "title",
              "type": "string"
            },
            {
              "internalType": "string",
              "name": "content",
              "type": "string"
            },
            {
              "internalType": "bool",
              "name": "published",
              "type": "bool"
            }
          ],
          "internalType": "struct Blog.Post[]",
          "name": "",
          "type": "tuple[]"
        }
      ],
      "stateMutability": "view",
      "type": "function"
    }
  ],
  "bytecode": "0x60806040523480156200001157600080fd5b5060405162001918380380620019188339818101604052810190620000379190620002e5565b80600090805190602001906200004f92919062000098565b5033600160006101000a81548173ffffffffffffffffffffffffffffffffffffffff021916908373ffffffffffffffffffffffffffffffffffffffff160217905550506200039b565b828054620000a69062000365565b90600052602060002090601f016020900481019282620000ca576000855562000116565b82601f10620000e557805160ff191683800117855562000116565b8280016001018555821562000116579182015b8281111562000115578251825591602001919060010190620000f8565b5b50905062000125919062000129565b5090565b5b80821115620001445760008160009055506001016200012a565b5090565b6000604051905090565b600080fd5b600080fd5b600080fd5b600080fd5b6000601f19601f8301169050919050565b7f4e487b7100000000000000000000000000000000000000000000000000000000600052604160045260246000fd5b620001b18262000166565b810181811067ffffffffffffffff82111715620001d357620001d262000177565b5b80604052505050565b6000620001e862000148565b9050620001f68282620001a6565b919050565b600067ffffffffffffffff82111562000219576200021862000177565b5b620002248262000166565b9050602081019050919050565b60005b838110156200025157808201518184015260208101905062000234565b8381111562000261576000848401525b50505050565b60006200027e6200027884620001fb565b620001dc565b9050828152602081018484840111156200029d576200029c62000161565b5b620002aa84828562000231565b509392505050565b600082601f830112620002ca57620002c96200015c565b5b8151620002dc84826020860162000267565b91505092915050565b600060208284031215620002fe57620002fd62000152565b5b600082015167ffffffffffffffff8111156200031f576200031e62000157565b5b6200032d84828501620002b2565b91505092915050565b7f4e487b7100000000000000000000000000000000000000000000000000000000600052602260045260246000fd5b600060028204905060018216806200037e57607f821691505b6020821081141562000395576200039462000336565b5b50919050565b61156d80620003ab6000396000f3fe608060405234801561001057600080fd5b50600436106100885760003560e01c80638da5cb5b1161005b5780638da5cb5b14610113578063abaddd7f14610131578063cd349fe91461014f578063f2fde38b1461016b57610088565b806306fdde031461008d578063392338f5146100ab57806344828659146100c757806384da92a7146100f7575b600080fd5b610095610187565b6040516100a29190610ca0565b60405180910390f35b6100c560048036038101906100c09190610e0b565b610215565b005b6100e160048036038101906100dc9190610e83565b6103d0565b6040516100ee9190610fb4565b60405180910390f35b610111600480360381019061010c9190610e83565b610551565b005b61011b61056b565b6040516101289190611017565b60405180910390f35b610139610591565b604051610146919061115e565b60405180910390f35b610169600480360381019061016491906111d8565b6107bd565b005b610185600480360381019061018091906112a3565b6109eb565b005b60008054610194906112ff565b80601f01602080910402602001604051908101604052809291908181526020018280546101c0906112ff565b801561020d5780601f106101e25761010080835404028352916020019161020d565b820191906000526020600020905b8154815290600101906020018083116101f057829003601f168201915b505050505081565b600160009054906101000a900473ffffffffffffffffffffffffffffffffffffffff1673ffffffffffffffffffffffffffffffffffffffff163373ffffffffffffffffffffffffffffffffffffffff161461026f57600080fd5b6102796002610a89565b60006102856002610a9f565b90506000600360008381526020019081526020016000209050818160000181905550838160010190805190602001906102bf929190610aad565b5060018160030160006101000a81548160ff021916908315150217905550828160020190805190602001906102f5929190610aad565b5080600484604051610307919061136d565b9081526020016040518091039020600082015481600001556001820181600101908054610333906112ff565b61033e929190610b33565b506002820181600201908054610353906112ff565b61035e929190610b33565b506003820160009054906101000a900460ff168160030160006101000a81548160ff0219169083151502179055509050507fe6851f0b99a9d86e5d68a97f65218980851216ce297f789c6b6b7e82ca1d90c88285856040516103c293929190611393565b60405180910390a150505050565b6103d8610bc0565b6004826040516103e8919061136d565b90815260200160405180910390206040518060800160405290816000820154815260200160018201805461041b906112ff565b80601f0160208091040260200160405190810160405280929190818152602001828054610447906112ff565b80156104945780601f1061046957610100808354040283529160200191610494565b820191906000526020600020905b81548152906001019060200180831161047757829003601f168201915b505050505081526020016002820180546104ad906112ff565b80601f01602080910402602001604051908101604052809291908181526020018280546104d9906112ff565b80156105265780601f106104fb57610100808354040283529160200191610526565b820191906000526020600020905b81548152906001019060200180831161050957829003601f168201915b505050505081526020016003820160009054906101000a900460ff1615151515815250509050919050565b8060009080519060200190610567929190610aad565b5050565b600160009054906101000a900473ffffffffffffffffffffffffffffffffffffffff1681565b6060600061059f6002610a9f565b905060008167ffffffffffffffff8111156105bd576105bc610ce0565b5b6040519080825280602002602001820160405280156105f657816020015b6105e3610bc0565b8152602001906001900390816105db5790505b50905060005b828110156107b45760006001826106139190611407565b905060006003600083815260200190815260200160002090508060405180608001604052908160008201548152602001600182018054610652906112ff565b80601f016020809104026020016040519081016040528092919081815260200182805461067e906112ff565b80156106cb5780601f106106a0576101008083540402835291602001916106cb565b820191906000526020600020905b8154815290600101906020018083116106ae57829003601f168201915b505050505081526020016002820180546106e4906112ff565b80601f0160208091040260200160405190810160405280929190818152602001828054610710906112ff565b801561075d5780601f106107325761010080835404028352916020019161075d565b820191906000526020600020905b81548152906001019060200180831161074057829003601f168201915b505050505081526020016003820160009054906101000a900460ff1615151515815250508484815181106107945761079361145d565b5b6020026020010181905250505080806107ac9061148c565b9150506105fc565b50809250505090565b600160009054906101000a900473ffffffffffffffffffffffffffffffffffffffff1673ffffffffffffffffffffffffffffffffffffffff163373ffffffffffffffffffffffffffffffffffffffff161461081757600080fd5b600060036000868152602001908152602001600020905083816001019080519060200190610846929190610aad565b50818160030160006101000a81548160ff0219169083151502179055508281600201908051906020019061087b929190610aad565b5080600360008781526020019081526020016000206000820154816000015560018201816001019080546108ae906112ff565b6108b9929190610b33565b5060028201816002019080546108ce906112ff565b6108d9929190610b33565b506003820160009054906101000a900460ff168160030160006101000a81548160ff0219169083151502179055509050508060048460405161091b919061136d565b9081526020016040518091039020600082015481600001556001820181600101908054610947906112ff565b610952929190610b33565b506002820181600201908054610967906112ff565b610972929190610b33565b506003820160009054906101000a900460ff168160030160006101000a81548160ff0219169083151502179055509050507f9f8eb93fc073102bbd3072664634ab200707a4f11d94aace9cc8d0e4d019eff581600001548585856040516109dc94939291906114e4565b60405180910390a15050505050565b600160009054906101000a900473ffffffffffffffffffffffffffffffffffffffff1673ffffffffffffffffffffffffffffffffffffffff163373ffffffffffffffffffffffffffffffffffffffff1614610a4557600080fd5b80600160006101000a81548173ffffffffffffffffffffffffffffffffffffffff021916908373ffffffffffffffffffffffffffffffffffffffff16021790555050565b6001816000016000828254019250508190555050565b600081600001549050919050565b828054610ab9906112ff565b90600052602060002090601f016020900481019282610adb5760008555610b22565b82601f10610af457805160ff1916838001178555610b22565b82800160010185558215610b22579182015b82811115610b21578251825591602001919060010190610b06565b5b509050610b2f9190610bea565b5090565b828054610b3f906112ff565b90600052602060002090601f016020900481019282610b615760008555610baf565b82601f10610b725780548555610baf565b82800160010185558215610baf57600052602060002091601f016020900482015b82811115610bae578254825591600101919060010190610b93565b5b509050610bbc9190610bea565b5090565b60405180608001604052806000815260200160608152602001606081526020016000151581525090565b5b80821115610c03576000816000905550600101610beb565b5090565b600081519050919050565b600082825260208201905092915050565b60005b83811015610c41578082015181840152602081019050610c26565b83811115610c50576000848401525b50505050565b6000601f19601f8301169050919050565b6000610c7282610c07565b610c7c8185610c12565b9350610c8c818560208601610c23565b610c9581610c56565b840191505092915050565b60006020820190508181036000830152610cba8184610c67565b905092915050565b6000604051905090565b600080fd5b600080fd5b600080fd5b600080fd5b7f4e487b7100000000000000000000000000000000000000000000000000000000600052604160045260246000fd5b610d1882610c56565b810181811067ffffffffffffffff82111715610d3757610d36610ce0565b5b80604052505050565b6000610d4a610cc2565b9050610d568282610d0f565b919050565b600067ffffffffffffffff821115610d7657610d75610ce0565b5b610d7f82610c56565b9050602081019050919050565b82818337600083830152505050565b6000610dae610da984610d5b565b610d40565b905082815260208101848484011115610dca57610dc9610cdb565b5b610dd5848285610d8c565b509392505050565b600082601f830112610df257610df1610cd6565b5b8135610e02848260208601610d9b565b91505092915050565b60008060408385031215610e2257610e21610ccc565b5b600083013567ffffffffffffffff811115610e4057610e3f610cd1565b5b610e4c85828601610ddd565b925050602083013567ffffffffffffffff811115610e6d57610e6c610cd1565b5b610e7985828601610ddd565b9150509250929050565b600060208284031215610e9957610e98610ccc565b5b600082013567ffffffffffffffff811115610eb757610eb6610cd1565b5b610ec384828501610ddd565b91505092915050565b6000819050919050565b610edf81610ecc565b82525050565b600082825260208201905092915050565b6000610f0182610c07565b610f0b8185610ee5565b9350610f1b818560208601610c23565b610f2481610c56565b840191505092915050565b60008115159050919050565b610f4481610f2f565b82525050565b6000608083016000830151610f626000860182610ed6565b5060208301518482036020860152610f7a8282610ef6565b91505060408301518482036040860152610f948282610ef6565b9150506060830151610fa96060860182610f3b565b508091505092915050565b60006020820190508181036000830152610fce8184610f4a565b905092915050565b600073ffffffffffffffffffffffffffffffffffffffff82169050919050565b600061100182610fd6565b9050919050565b61101181610ff6565b82525050565b600060208201905061102c6000830184611008565b92915050565b600081519050919050565b600082825260208201905092915050565b6000819050602082019050919050565b60006080830160008301516110766000860182610ed6565b506020830151848203602086015261108e8282610ef6565b915050604083015184820360408601526110a88282610ef6565b91505060608301516110bd6060860182610f3b565b508091505092915050565b60006110d4838361105e565b905092915050565b6000602082019050919050565b60006110f482611032565b6110fe818561103d565b9350836020820285016111108561104e565b8060005b8581101561114c578484038952815161112d85826110c8565b9450611138836110dc565b925060208a01995050600181019050611114565b50829750879550505050505092915050565b6000602082019050818103600083015261117881846110e9565b905092915050565b61118981610ecc565b811461119457600080fd5b50565b6000813590506111a681611180565b92915050565b6111b581610f2f565b81146111c057600080fd5b50565b6000813590506111d2816111ac565b92915050565b600080600080608085870312156111f2576111f1610ccc565b5b600061120087828801611197565b945050602085013567ffffffffffffffff81111561122157611220610cd1565b5b61122d87828801610ddd565b935050604085013567ffffffffffffffff81111561124e5761124d610cd1565b5b61125a87828801610ddd565b925050606061126b878288016111c3565b91505092959194509250565b61128081610ff6565b811461128b57600080fd5b50565b60008135905061129d81611277565b92915050565b6000602082840312156112b9576112b8610ccc565b5b60006112c78482850161128e565b91505092915050565b7f4e487b7100000000000000000000000000000000000000000000000000000000600052602260045260246000fd5b6000600282049050600182168061131757607f821691505b6020821081141561132b5761132a6112d0565b5b50919050565b600081905092915050565b600061134782610c07565b6113518185611331565b9350611361818560208601610c23565b80840191505092915050565b6000611379828461133c565b915081905092915050565b61138d81610ecc565b82525050565b60006060820190506113a86000830186611384565b81810360208301526113ba8185610c67565b905081810360408301526113ce8184610c67565b9050949350505050565b7f4e487b7100000000000000000000000000000000000000000000000000000000600052601160045260246000fd5b600061141282610ecc565b915061141d83610ecc565b9250827fffffffffffffffffffffffffffffffffffffffffffffffffffffffffffffffff03821115611452576114516113d8565b5b828201905092915050565b7f4e487b7100000000000000000000000000000000000000000000000000000000600052603260045260246000fd5b600061149782610ecc565b91507fffffffffffffffffffffffffffffffffffffffffffffffffffffffffffffffff8214156114ca576114c96113d8565b5b600182019050919050565b6114de81610f2f565b82525050565b60006080820190506114f96000830187611384565b818103602083015261150b8186610c67565b9050818103604083015261151f8185610c67565b905061152e60608301846114d5565b9594505050505056fea26469706673582212203912630f05b7a4c9ed694e5db224cf31520015564a0385d5c5d5bf496f292f4564736f6c634300080c0033",
  "immutableReferences": {},
  "source": "// SPDX-License-Identifier: MIT\npragma solidity ^0.8.0;\n\nimport \"@openzeppelin/contracts/utils/Counters.sol\";\n\ncontract Blog {\n    string public name;\n    address public owner;\n\n    using Counters for Counters.Counter;\n    Counters.Counter private _postIds;\n\n    struct Post {\n      uint id;\n      string title;\n      string content;\n      bool published;\n    }\n    /* mappings can be seen as hash tables */\n    /* here we create lookups for posts by id and posts by ipfs hash */\n    mapping(uint => Post) private idToPost;\n    mapping(string => Post) private hashToPost;\n\n    /* events facilitate communication between smart contractsand their user interfaces  */\n    /* i.e. we can create listeners for events in the client and also use them in The Graph  */\n    event PostCreated(uint id, string title, string hash);\n    event PostUpdated(uint id, string title, string hash, bool published);\n\n    /* when the blog is deployed, give it a name */\n    /* also set the creator as the owner of the contract */\n    constructor(string memory _name) {\n        name = _name;\n        owner = msg.sender;\n    }\n\n    /* updates the blog name */\n    function updateName(string memory _name) public {\n        name = _name;\n    }\n\n    /* transfers ownership of the contract to another address */\n    function transferOwnership(address newOwner) public onlyOwner {\n        owner = newOwner;\n    }\n\n    /* fetches an individual post by the content hash */\n    function fetchPost(string memory hash) public view returns(Post memory){\n      return hashToPost[hash];\n    }\n\n    /* creates a new post */\n    function createPost(string memory title, string memory hash) public onlyOwner {\n        _postIds.increment();\n        uint postId = _postIds.current();\n        Post storage post = idToPost[postId];\n        post.id = postId;\n        post.title = title;\n        post.published = true;\n        post.content = hash;\n        hashToPost[hash] = post;\n        emit PostCreated(postId, title, hash);\n    }\n\n    /* updates an existing post */\n    function updatePost(uint postId, string memory title, string memory hash, bool published) public onlyOwner {\n        Post storage post =  idToPost[postId];\n        post.title = title;\n        post.published = published;\n        post.content = hash;\n        idToPost[postId] = post;\n        hashToPost[hash] = post;\n        emit PostUpdated(post.id, title, hash, published);\n    }\n\n    /* fetches all posts */\n    function fetchPosts() public view returns (Post[] memory) {\n        uint itemCount = _postIds.current();\n\n        Post[] memory posts = new Post[](itemCount);\n        for (uint i = 0; i < itemCount; i++) {\n            uint currentId = i + 1;\n            Post storage currentItem = idToPost[currentId];\n            posts[i] = currentItem;\n        }\n        return posts;\n    }\n\n    /* this modifier means only the contract owner can */\n    /* invoke the function */\n    modifier onlyOwner() {\n      require(msg.sender == owner);\n    _;\n  }\n}",
  "sourcePath": "/Users/nimapourjafar/Documents/GitHub/CFX-Blog/contracts/Blog.sol",
  "compiler": {
    "name": "solc",
    "version": "0.8.12+commit.f00d7308.Emscripten.clang"
  },
  "schemaVersion": "3.3.4",
  "updatedAt": "2022-03-13T00:13:39.502Z",
  "devdoc": {
    "kind": "dev",
    "methods": {},
    "version": 1
  },
  "userdoc": {
    "kind": "user",
    "methods": {},
    "version": 1
  }
}